:020000040800F2
:1000000038070020550200085F270008FB2600087B
:100010005D270008251900088D2900080000000050
:10002000000000000000000000000000632700083E
:100030002719000800000000612700086527000854
:100040006F0200086F0200086F0200086F020008CC
:100050006F0200086F0200086F0200086F020008BC
:100060006F0200086F0200086F0200086F020008AC
:100070006F0200086F0200086F0200086F0200089C
:100080006F0200086F0200086F0200086F0200088C
:100090006F0200086F0200086F0200086F0200087C
:1000A0006F0200086F0200086F0200086F0200086C
:1000B0006F0200086F0200086F0200086F0200085C
:1000C0006F0200086F0200086F0200086F0200084C
:1000D0006F0200086F0200086F0200086F0200083C
:1000E0006F0200086F0200086F0200086F0200082C
:1000F0006F0200086F0200086F0200086F0200081C
:100100006F0200086F0200086F0200086F0200080B
:100110006F0200086F0200086F0200086F020008FB
:100120006F0200086F0200086F0200086F020008EB
:100130006F0200086F0200086F0200086F020008DB
:100140006F0200086F0200086F0200086F020008CB
:100150006F0200086F0200086F0200086F020008BB
:100160006F0200086F0200086F0200086F020008AB
:100170006F0200086F0200086F0200080000000014
:100180006F0200086F02000800F002F800F053F858
:100190000AA090E8000C82448344AAF10107DA45E2
:1001A00001D100F048F8AFF2090EBAE80F0013F0E1
:1001B000010F18BFFB1A43F001031847042E00007B
:1001C000242E0000103A24BF78C878C1FAD852070C
:1001D00024BF30C830C144BF04680C6070470000C1
:1001E0000023002400250026103A28BF78C1FBD840
:1001F000520728BF30C148BF0B607047662902F024
:100200008686642900F05481732900F04685002019
:1002100070471FB502F071FE9DE8030000F070FA10
:1002200000F044FD04000020002102F09DFCE0608D
:100230001FBD10B510BD00F057FE1146FFF7E9FFD6
:1002400002F0D4FB00F075FE03B4FFF7F2FF03BC2D
:1002500000F0E6FE0948804709480047FEE7FEE750
:10026000FEE7FEE7FEE7FEE7FEE7FEE7FEE7FEE766
:1002700004480549054A064B70470000F927000865
:1002800089010008380100203807002038030020C9
:100290003803002070B5064600F016FA056806F12E
:1002A0000B0020F00704B4429CBF002070BD2B4619
:1002B0006A68BAB11068A04210D304F108018842FC
:1002C0003CBF5068586007D35168101941601168ED
:1002D000091B016058601460101D70BD1346526800
:1002E000002AE7D12146284600F0F6F90028DED1A1
:1002F00070BD70B50446051F00F0E6F90068002CDB
:1003000014BF446870BD002C18BFAC423CBF2046EF
:100310006468F8D301680A18AA4218BF456003D17F
:100320002A6805461144016028684119A1421CBF92
:100330006C6070BD6168696021680844286070BDA8
:1003400053EA020C00F069802DE9F04B4FF00006F3
:10035000002B1FBFB3FA83F503FA05F424FA05F660
:100360005E4012BF1643B2FA82F502FA05F4C5F1F7
:1003700020051EBF22FA05FC44EA0C04203556EA8B
:10038000044C4FEA144418BF641C4FF000084FF0AF
:100390000009904271EB030C39D3002919BFB1FA5F
:1003A00081F701FA07F6B0FA80F700FA07F6C7F10D
:1003B00020071EBF20FA07FC46EA0C062037B6FBD2
:1003C000F4FCA7EB0507103F07F01F0BCBF120064D
:1003D0000CFA0BFB2CFA06F644BFB3460026202F7E
:1003E000A4BF5E464FF0000B5BEA060C08BF4FF05F
:1003F000010B19EB0B09ABFB027C48EB0608C01B99
:1004000006FB02CC0BFB03CC71EB0C01C1E70B46E6
:10041000024641464846BDE8F08B13B54FF0000058
:100420004FF00001AFF30080BDE81C4070470000B2
:100430000FB41CB5084B06AA7B446946009005988A
:1004400000F001FC04460020694600F00FFC204645
:100450001CBC5DF814FB00003108000070B50C46B0
:100460000546012A05D02878800600D5EA690023D0
:1004700002E0012305E05B1C934202D2E05C00280D
:10048000F9D1A869E618C01AA861286A1844286238
:100490002846AFF3008004E0D5E9012114F8010BF0
:1004A0009047B442F8D32846AFF3008070BD0000F7
:1004B0002DE9F0410646002410687529314616A53D
:1004C00010D0AFF30080002802DA404213A507E005
:1004D00031688A0701D512A502E0490704D511A5A4
:1004E000012401E0AFF3008000210A2206F1240775
:1004F00009E0B0FBF2FCB0FBF2F302FB1C00303071
:1005000078541846491C0028F3D123462A46304621
:10051000BDE8F04100F02AB9000000002D00000005
:100520002B000000200000002DE9F0474FF0000AEA
:1005300089460446C0F820A02046E1688847002884
:1005400076D0252806D0D4E901219047206A401CA6
:100550002062F1E7E168204600258847C4F81CA026
:1005600006460027C4F818A02A2E09D0304602F00B
:1005700036FA38B304EB8708303EC8F8186019E043
:1005800059F8041B204604EB87029161E168884713
:10059000012F064618D1E069002820DA25F0200551
:1005A0001DE0D8F8180000EB800006EB4000303862
:1005B000C8F818002046E1688847064602F00FFA9E
:1005C0000028EED1012F0AD02E2E08D12046E16856
:1005D00088477F1C0646022F45F02005C4DBA06932
:1005E000002803DA404245F00105A061E80701D088
:1005F00025F01005B6B1A6F14100192802D8203621
:1006000045F400654A463146204625604D46FFF7D1
:10061000F5FD58B1012806D0ED1D25F0070000F1C9
:10062000080989E704E005F1040985E730468AE70F
:10063000206ABDE8F08710B5431C02E010F8011BEA
:1006400071B18107FAD14FF0013202C88C1A8C4384
:1006500014EAC211F9D0C01A0A0603D0C01E10BD98
:10066000C01A10BD0A0401D0801E10BD0902FCD0C2
:10067000401E10BD4FF0000200B51346944696464A
:10068000203922BFA0E80C50A0E80C50B1F12001A5
:10069000BFF4F7AF090728BFA0E80C5048BF0CC053
:1006A0005DF804EB890028BF40F8042B08BF7047B1
:1006B00048BF20F8022B11F0804F18BF00F8012B23
:1006C000704770477047704700487047DC00002053
:1006D000704770477047704738B504460A46002097
:1006E0006946AFF30080002808BF38BD0246009974
:1006F000204600F0DFFA012038BD012000F0ECBBFD
:10070000F8B5AFF30080054600200C46102000BF6E
:100710000646A819A0420DD9324669460020AFF31B
:100720000080070008BF00F0D7FB0098A04218BF68
:100730000546C419FFF7C8FF05600746F01D20F005
:1007400007004619284600F00AF8B44208BFF8BD71
:10075000A21B31463868BDE8F84000F0ABBA002172
:100760000160C0E901107047102070472DE9F04783
:100770000D4699469246044600F124080168880611
:1007800004D5E06921F01001216000E00120A842B9
:1007900001DD471B00E00027A1697A1902EB09007F
:1007A000081AA0612078C00602D42046AFF300806A
:1007B000002608E0D4E901211AF806009047206AD3
:1007C000401C761C20624E45F4DB2078C0060AD51A
:1007D0002046AFF3008006E0D4E9012130209047A5
:1007E000206A401C2062381EA7F10107F4DC07E0F4
:1007F000D4E9012118F805009047206A401C2062C6
:10080000281EA5F10105F3DC2046AFF30080207817
:10081000000602D50220BDE8F0870120FBE7704703
:100820002DE9FF4F0C461E464FF0FF378BB0D2E943
:100830000001DDF860800A908A46C1F30A5505B9C7
:100840003D46002108464FF00000BAF1000F00F4C9
:10085000400005DA00EB80004FF4400101EA50004F
:100860004FEA9059B9F1010F00DDB9460A9850EAF4
:100870004A000ED044F61050A5F2FF3545432F1420
:10088000B8F1000F1ED07542291E1EDDC9F100020D
:100890001CE0B8F1010F4FF0000001D0302103E05F
:1008A000F24305E02154401CB042FBDB30460022FD
:1008B000002121540B99C1F80880C1E900200FB034
:1008C000BDE8F08FBD1B6D1CDEE74A4600DA6942C9
:1008D00006A800F08FFA06AB93E8070003AB83E8A5
:1008E000070050460A9900F0C1FB8DE80700A0F50B
:1008F00000501F3800900398002D0ADD42F21F01BE
:100900004A460844002303A90390684600F02AFEE3
:1009100009E0A0F500504A461F38002303A90390C0
:10092000684600F034FE8DE807000004000C03D098
:100930004FF0FF30410800E01046B8F1000F03D03F
:100940000022009215461EE0751E05D400F0CCF979
:10095000303262556D1EF9D5B3460122084302D0EC
:1009600000227F1C04E02078302801D100227F1E65
:10097000002A099784D01DE0112D07DA00F0B4F9A0
:10098000303262556D1C50EA0102F5D1084302D0A5
:100990000098C8B10EE00021681E05E0235C625C8F
:1009A00063542254401E491C8142F7DBAB46A81B0E
:1009B000401E0990002004F80B000B98099AC0F81B
:1009C0000880C0E9002B7AE711264FF0000857E7AE
:1009D0002DE9F04F88460446D21D22F0070191B060
:1009E000D1E90001CDE90A0101F0D1FF02460B98DF
:1009F000C00F01D02D2007E02068810701D52B20F2
:100A000002E0202101EAC000032A099001D0072A50
:100A100005DB03464146204600F0ACF90BE12078A7
:100A2000800601D5E06900E00620B8F1650F814637
:100A300006D0B8F1660F18D0B8F1670F70D131E069
:100A40000020B9F1110F009001DB112301E009F141
:100A500001030AAA01A90CA8FFF7E2FEDDE90C7068
:100A6000002609F10105834647E001204B4600902E
:100A70004FF000470AAA01A90CA8FFF7D1FEDDE953
:100A80000DB00C995D46002610B909F101000D1852
:100A9000B9EB050003D4C0F1FF3609F10105A5EB60
:100AA00009002BE0B9F1010F01DA4FF00109002034
:100AB000B9F1110F0090484601DD112300E0034613
:100AC0000AAA01A90CA8FFF7ABFEDDE90C704D46A0
:100AD00000268346207800070AD4AB4500DA5D463D
:100AE00001A8012D04DD411911F8011C302907D09E
:100AF0004F4502DA17F1040F04DA012082460FE0B5
:100B00006D1EEEE7002F02DCED1B3E4403E0781C77
:100B1000A84200DD7D1CB81B00F1010A4FF0004720
:100B20002078000703D4AA4501DB4FF0FF3A0021EB
:100B3000B7F1004F0DF143088DF8431024D0022087
:100B40002B23002F01DA7F422D230A21021EA0F160
:100B5000010000DC5FB197FBF1FC97FBF1F201FBB8
:100B60001C7C17460CF1300C08F801CDEEE7A8F11B
:100B7000010003702188090501D5452100E06521A8
:100B8000A0F1010800F8011C09980FA9A1EB0807C2
:100B9000FF1D00B10120411901EBEA70A169384441
:100BA000081A401EA0612078C00602D42046AFF388
:100BB0000080099828B1D4E901219047206A401C9F
:100BC00020622078C00622D52046AFF300801EE0C8
:100BD000002E04DBB34502DD01A8805D00E030207B
:100BE000D4E901219047206A401C2062761CAAF1BA
:100BF00001005FEA000A0AD100F058F8C0680168F5
:100C0000405CD4E901219047206A401C2062281EE4
:100C1000A5F10105DCDC07E0D4E9012118F8010B9E
:100C20009047206A401C2062381EA7F10107F3DCC0
:100C30002046AFF30080032011B041E601694A1C51
:100C400002610878704700B58FB0CDE9013100210D
:100C5000059105497944CDE9031011466846FFF72F
:100C600063FC0FB000BD0000E5FFFFFF0A6802F85B
:100C7000010B0A60704710B5436913B1AFF30080F0
:100C800001E0FFF7EBFB012010BD127800F1240119
:100C90000A7000224A700122EDE711684FF0FF321E
:100CA000E9E7000000487047D40000200048704782
:100CB000F4000020034640688C46002818BF884294
:100CC0003CBF03464068F8D318681844884207D0F0
:100CD0000CF1030020F00700001D411A521A0146D2
:100CE000081D0A60FFF705BB30B5B0F10A024FEAF4
:100CF000900E71F100034EEA817EB0EB0E0061EBC5
:100D000091014FEA101E4EEA017E10EB0E0041EBFE
:100D100011114FEA102E4EEA016E10EB0E0041EB5E
:100D200011214FEA104E4EEA014E10EB0E0041EB3E
:100D30001141401841F100014FEAD00040EA4170F2
:100D40004FEAD10110EB80054FEA810444EA907428
:100D500044EB01046D1944EB0404521BA3414FF012
:100D6000000348BF0A3200D530BD401C41F10001EC
:100D700030BD00002DE9F0411F46044603260168FE
:100D8000072A01F4006004DB08B116A505E016A5EA
:100D900003E008B115A500E015A521F010002060C2
:100DA000A069C01EA0610FB1401EA0612046AFF334
:100DB00000804FB1D4E9012138469047206A401C99
:100DC0002062C01C206206E0206AFAE7D4E9012113
:100DD00015F8010B9047761EF8D22046AFF300803D
:100DE000BDE8F0814E414E006E616E00494E4600F6
:100DF000696E66002DE9F047814616468AB035488F
:100E000078440DC88DE80D0032487844801C03AC4E
:100E10000DC884E80D0041F69B300844372190FB53
:100E2000F1F290FBF1F5A5F1800501FB12041B3CEA
:100E300002D56442012000E00020DFF898A080463F
:100E40000027FA44AAF1BE0A0EE0E0070AD03246B3
:100E5000684607EB470101230AEB810100F097FB8D
:100E60008DE8070064107F1C002CEED1194F7F44E1
:100E7000AE3F19E0E80715D007EB04100DF1180A92
:100E800090E80E008AE80E00C068F04201D198197F
:100E900008903246012306A903A800F078FB03ABB3
:100EA00083E807006D10641C002DE3D14FF00103AF
:100EB00032466946B8F1000F03A802D000F052FB99
:100EC00001E000F064FBC9E90001C9F808200AB09C
:100ED000BDE8F087A421000010B500F039F8BDE8A6
:100EE000104000F02FB870477546FFF7DBFEAE46A6
:100EF00005006946534620F00700854618B020B526
:100F0000FFF7B6F9BDE820404FF000064FF00007AC
:100F10004FF000084FF0000B21F00701AC46ACE8A1
:100F2000C009ACE8C009ACE8C009ACE8C0098D460E
:100F3000704710B50446AFF300802046BDE810406E
:100F4000FFF782B9002801D000F06AB870470000AE
:100F500010B5012805D0002103A000F067F801209A
:100F600010BD09A1F8E7000053494752544D454DC3
:100F70003A204F7574206F662068656170206D653A
:100F80006D6F7279000000003A2048656170206D35
:100F9000656D6F727920636F72727570746564002D
:100FA0004FF0013C50F8042B51F8043B9A4221D1F8
:100FB000A2EB0C03934313EACC1317D150F8042B84
:100FC00051F8043B9A4215D1A2EB0C03934313EA68
:100FD000CC130BD150F8042B51F8043B9A4209D1A1
:100FE000A2EB0C03934313EACC13DBD04FF00000C9
:100FF000704700BFD01A01BAB1FA81F101F01801AF
:1010000022FA01F0CB40C1F12001DBB2C0B2C01A1C
:101010002CFA01F3D11A914311EAC311E6D17047BA
:1010200001491820ABBEFEE72600020070B5054658
:101030000C460A2000E06D1C00F011F835B128784C
:101040000028F8D102E0641C00F009F814B12078FF
:101050000028F8D1BDE870400A20AFF3008008B541
:1010600069468DF800000320ABBE08BD5FEA400C66
:1010700008BF91F0000F4FEA8C234FEAC12243EAE8
:1010800051514FEA1C5018BF00F5F0404FEA3000B4
:1010900018BF41F000415FEA6C5C00F02980BCF1B0
:1010A000FF3F08BF40F080407047130C06BF12049A
:1010B0004FF0100C4FF0000C130E04BF12020CF195
:1010C000080C130F04BF12010CF1040C930F04BFA2
:1010D00092000CF1020CD30F04BF52000CF1010C72
:1010E00011464FF00002A0F11F00A0EB0C0070476A
:1010F00011F0004F08BF704731F000413FF4D5AF09
:101100000B0C06BF09044FF0100C4FF0000C0B0E37
:1011100004BF09020CF1080C0B0F04BF09010CF10C
:10112000040C8B0F04BF89000CF1020CCB0F04BF21
:1011300049000CF1010CCCF12003A0EB0C0022FAC9
:1011400003F302FA0CF241EA030100F101007047D7
:1011500020F07F4C80EA030023F07F47ACEB0703CD
:1011600003F57C5300F0004003F1FF032DE98049B3
:101170004FEA154B09B44FEA144325EA0B4E24EA13
:1011800003480FF2042606EB132749083E785FEA6E
:10119000320203FB0667C7F5000707FB06F64FEAB6
:1011A00054374FEAD64606F1020607FB066CCCF12F
:1011B000005C4FEA1C472CEA074C07FB06F40CFBCB
:1011C00006F504EB15464FEA961634BF00204FF0A3
:1011D00000404FEAD13706FB07FC4FEA1C4C0CFBE2
:1011E0000BF7D21B03FB0CF761EB07010CFB0EF7AF
:1011F000B0EB074072EB17420CFB08F734BFA2EBD1
:101200000742B2EB074261EB17414FEA0C444FEA49
:10121000910706FB07FC4FEA1C4C0CFB0BF7B0EBED
:10122000C74072EB573203FB0CF734BFA2EBC74247
:10123000B2EBC74261EB57310CFB0EF7B0EBC700C6
:1012400072EB57720CFB08F734BFA2EBC702B2EB8C
:10125000C70261EB5771039F4FEA816141EA921126
:1012600004EBCC044FEAD1374FEA826206FB07FC5D
:1012700042EA90124FEA80604FEA1C4C0CFB0BF7DD
:10128000D21B03FB0CF761EB07010CFB0EF7B0EB75
:10129000074072EB17420CFB08F734BFA2EB074282
:1012A000B2EB074261EB17414FEA8C554FEA9107C9
:1012B00004EB9C2406FB07FC4FEA1C4C0CFB0BF7D1
:1012C000B0EBC74072EB573203FB0CF734BFA2EB15
:1012D000C742B2EBC74261EB57310CFB0EF7B0EBE4
:1012E000C70072EB57720CFB08F734BFA2EBC702C2
:1012F000B2EBC70261EB577115EB4C254FEA8161E8
:1013000041EA92114FEA82624FEAD13742EA9012E3
:1013100006FB07FC44F100044FEA80604FEA1C4CD6
:101320000CFB0BF7D21B03FB0CF761EB07010CFB6B
:101330000EF7B0EB074072EB17420CFB08F734BF17
:10134000A2EB0742B2EB074261EB174115EB1C150C
:101350004FEA813141EA92414FEA823242EA9042B9
:101360004FEA80304FEA0C7644F1000448EA034328
:101370004EEA0B484FF0000EB2EB080C71EB03077E
:1013800024BF624639464EEB0E0E4FF0000B00189C
:10139000524149414BEB0B0BB2EB080C71EB0307CD
:1013A0007BF1000B24BF624639464EEB0E0E4FF028
:1013B000000B0018524149414BEB0B0BB2EB080CF0
:1013C00071EB03077BF1000B24BF624639464EEBFD
:1013D0000E0E51EA020718BF46F0010616EB0E7614
:1013E00055F1000254F1000103D5BDE88901BDE8C3
:1013F0000088BDE88901BDE80048B619524141EBBB
:101400000101A3F10103704780807F7E7D7C7B7AA0
:101410007978777676757473727171706F6E6E6DA0
:101420006C6C6B6A6A696868676666656464636346
:1014300062616160605F5F5E5E5D5D5C5C5B5B5ACC
:101440005A59595858575756565555555454535339
:1014500052525251515050504F4F4F4E4E4D4D4D94
:101460004C4C4C4B4B4B4A4A4A49494948484847DF
:10147000474747464646454545444444444343431D
:101480004342424242414141002B9C4630D47700C6
:101490002BD01CB54FEA370703B44FF010004FF0C4
:1014A0001001BAF1000F06D0BCF1000FDCBF40F014
:1014B000080040F008014FF000000FBCBDE81040EC
:1014C0000BF1010BBBF1010F08BF5FEA170722BF49
:1014D00012F1010211F101014FF0004143F100034B
:1014E00000F0004043EA00007047F9D35708D0E706
:1014F00046EA064613F1400F4FEA16461FDD13F188
:10150000200FDFBF16430A46002120335B42BED0C6
:10151000C3F1200746EA064602FA07F74FEA1646E5
:1015200046EA0706C3F1200722FA03F201FA07F799
:1015300021FA03F14FF0000342EA0702A7E746EA67
:10154000020646EA06464FEA164646EA0106BCBFD0
:1015500046EA0646360C4FF000034FF000024FF00B
:10156000000194E72DE9804C9A46934670B491E8C7
:10157000380007C831EA400C48BF34EA430C03D5B1
:10158000FFF7E6FDFFF780FFF0BCBDE8008C2DE91A
:10159000804C9A46934670B491E8380007C810F022
:1015A000804F08BF13F0804F03D100F005F8FFF71C
:1015B0006BFFF0BCBDE8008C20F07F4780EA0300A1
:1015C00023F07F4C07EB0C03A3F57C5300F00040A5
:1015D000A3F1FE0392F0000F00F0B38095F0000F2E
:1015E00000F077802DE901494FEA11404FEA144697
:1015F00021EA004800FB06FC24EA064708FB06F641
:1016000007FB08F800FB07F718EB06484CEB164CF5
:101610004FEA124B18EB07484FEA15464CEB1740C0
:1016200022EA0B4E0BFB06FC25EA06470EFB06F6EC
:1016300007FB0EFE0BFB07F71EEB064E4CEB164CA2
:101640004FF000061EEB074E4CEB174B18EB0B0848
:1016500040F1000018EB0E0B58EB000840F10000C1
:101660008F1A4FF000013CBFC943661B14BFB5EB96
:10167000040C00213CBFC943F61B4FEA17444EEA55
:101680008E0E27EA04454FEA1C4704FB07622CEA4A
:10169000074C05FB07F70CFB05F604FB0CFC16EBEF
:1016A000074642EB174216EB0C4642EB1C421BEB83
:1016B000060658EB0202414146EA9E0601D5BDE806
:1016C0000189B619524141EB0101A3F10103BDE8C3
:1016D00001894FEA14454FEA114724EA054621EAF9
:1016E000074C05FB07F406FB07F70CFB06F105FBAF
:1016F0000CFC11EB074144EB17444FEA124711EB86
:101700000C4144EB1C4422EA074C05FB07F206FBA4
:1017100007F70CFB06F605FB0CFC16EB074642EB45
:10172000174216EB0C4642EB1C456A1854F10001B7
:1017300048BF7047B619524141EB0101A3F10103C3
:10174000704795F0000F37D04FEA11424FEA144727
:1017500021EA024624EA074C02FB07F106FB07F7E1
:101760000CFB06F402FB0CFC14EB074441EB1741A5
:101770004FEA154714EB0C4441EB1C4125EA074C9A
:1017800002FB07F506FB07F70CFB06F602FB0CFC59
:1017900016EB074645EB174516EB0C4645EB1C428E
:1017A000121951F1000148BF7047B619524141EB7F
:1017B0000101A3F1010370474FEA14454FEA1147B5
:1017C00024EA054621EA074C05FB07F106FB07F76B
:1017D0000CFB06F24FF0000605FB0CFC12EB074277
:1017E00041EB174112EB0C4251EB1C4148BF7047D3
:1017F000921841EB0101A3F101037047464910B56E
:101800004A6822F440324A604A6843681A434A6090
:1018100001684A6822F480724A6001684A68036974
:1018200042EA03224A6001684A6822F040724A6034
:1018300001684A6883681A434A6001688A6822F42A
:1018400000628A6001688A68C3681A438A60816A94
:101850006FF07062D14201688A6822F070628A601B
:1018600001688A680CD0836A1A438A6001688A68B2
:1018700022F040528A6001688A68C36A1A4301E014
:1018800022F040528A6001688A6822F002028A606F
:1018900001688A68037E42EA43028A6090F8201059
:1018A000002901684A680FD042F400624A6001686A
:1018B0004A6822F460424A6001684A68174C436AE9
:1018C00004EB43331A4301E022F400624A600168EA
:1018D000CA6A22F47002CA620168CA6A838B104C19
:1018E00004EB03531A43CA6201688A6822F4007247
:1018F0008A6001688A6890F8303042EA43228A6040
:1019000001688A6822F480628A6001688A68406996
:1019100042EA8020886010BD0023014000E0FFFF04
:101920000000F0FFFEE7704778B50024009490F8BF
:101930003C20012A19D0012280F83C200A680723A4
:101940000568092A13D9EE680A3A02EB420293406D
:101950009E43EE600B788A680A3B03EB43039A4090
:101960000368DD682A43DA6010E0022078BD2E6942
:1019700002EB420293409E432E610B788A6803EB90
:1019800043039A4003681D692A431A614A681F236A
:10199000072A13D205686E6B521E02EB8202934037
:1019A0009E436E630B790A885B1E92B203EB83033E
:1019B0009A4003685D6B2A435A6327E005680D2A45
:1019C00012D22E6BD21F02EB820293409E432E63F3
:1019D0000B790A88DB1F92B203EB83039A400368FA
:1019E0001D6B2A431A6311E0EE6A0D3A02EB820284
:1019F00093409E43EE620B790A880D3B92B203EB53
:101A000083039A400368DD6A2A43DA62164B05684D
:101A1000144A9D4206D10D68122D03D1556845F434
:101A20008005556005689D4218D10B68102B01D0C8
:101A3000112B13D1536843F4000353600968102934
:101A40000CD10A490A4A0968B1FBF2F101EB8101A4
:101A5000490000E0491E00910029FBD180F83C407C
:101A6000002078BD0023014000200140100000202C
:101A700040420F000068C06C704770B504004FF022
:101A8000000503D0206C002610B107E0012070BDD6
:101A9000204600F01DF8666484F83C60206CC006A7
:101AA00010D4206C20F4885040F0020020642046BE
:101AB000FFF7A4FE6664206C20F0020040F00100F5
:101AC000206400E0012584F83C60284670BD0000D9
:101AD00010B586B0044614216846FEF7CBFD1149C7
:101AE000206888421CD110480021026842F48072AC
:101AF0000260006800F4807005900B48143802689A
:101B000042F001020260006800F00100059002202E
:101B100000900320CDE901016946044800F0EEF889
:101B200006B010BD002001404438024000000240D1
:101B30002DE9F041044600680D4681684FF000072A
:101B400049050BD58068C00508D5206C40F0200001
:101B5000206484F83C700120BDE8F08100F0C6F9F3
:101B6000064613E0681C11D025B100F0BFF9801BB8
:101B7000A8420BD920680068800707D4206C40F089
:101B80000400206484F83C700320E5E720680068C6
:101B90008007E7D521686FF012000860206C40F4E0
:101BA000007020642068816811F0405F13D1217EAD
:101BB00089B9C16A11F4700F02D0806840050AD457
:101BC000206C20F480702064206CC00403D4206C4E
:101BD00040F0010020640020BEE7000018B500219D
:101BE000009190F83C20012A07D0012280F83C2087
:101BF00002689368DB0702D011E0022018BD9368E9
:101C000043F0010393602E4A2E4B1268B2FBF3F2AD
:101C100002EB420200E0521E0092002AFBD1026851
:101C20009368DB0742D0036C40F20164A34343F4A2
:101C30008073036453685B0505D5036C23F400537C
:101C400043F480530364036CDB0404D5436C23F03A
:101C50000603436400E0416480F83C101A496FF0C9
:101C60002203136049680068CA06184906D08842F2
:101C700024D1816811F0405F13D01FE08842F8D072
:101C8000134A904203D1D1F80423D206F1D0114A6D
:101C9000904213D1D1F8041301F01F011029E8D3A9
:101CA0000CE0816841F08041816007E0016C41F007
:101CB00010010164416C41F001014164002018BD34
:101CC0001000002040420F0000230140002001408E
:101CD000002101400022014070B5044600F006F9E1
:101CE0000546601C02D004480078044400F0FEF869
:101CF000401BA042FAD370BD040000202DE9F84F2C
:101D0000DFF8BCA10022012503264FF00F090AF1DC
:101D1000040BAAF1040E00BF0B6805FA02F423407D
:101D2000A34270D10F7907F00307012F01D0022FD2
:101D300016D187684FEA420806FA08FC27EA0C0722
:101D4000D1F80CC00CFA08FC4CEA070CC0F808C02B
:101D50004768A7430C79C4F3001494403C434460A3
:101D60000C79E443A4070AD0C4684FEA420C06FA8F
:101D70000CF7BC438F6807FA0CF72743C7600C7950
:101D800004F00304022C12D1D40800EB840CDCF81C
:101D900020405707FF0E09FA07F824EA0804D1F893
:101DA000108008FA07F848EA0408CCF82080046894
:101DB0004FEA420C06FA0CF7BC430F7907F0030711
:101DC00007FA0CF7274307604C6814F4403F70D0C3
:101DD0003C4C276847F480472760246822F00307BB
:101DE00004F480440094384C07EB040CDCF80848F9
:101DF00097074FEA177809FA08F7BC43334FB84200
:101E000002D1002724E054E0314FB84201D101272C
:101E10001EE0304FB84201D1022719E02E4FB842E0
:101E200001D1032714E02D4FB84201D104270FE060
:101E30002B4FB84201D105270AE02A4FB84201D101
:101E4000062705E0284FB84201D1072700E0082700
:101E500007FA08F72743CCF80878DAF80040574625
:101E6000D1F804C09C435FEACC2C00D51C433C60F5
:101E7000DBF800405F46D1F804C09C435FEA8C2C3D
:101E800000D51C433C60DEF800407746D1F804C022
:101E90009C435FEA8C3C00D51C433C60084F083FE4
:101EA0003C68D1F804C09C435FEACC3C00D51C439D
:101EB0003C60521C102AFFF42FAFBDE8F88F0000E1
:101EC000083C01404438024000300140000002401C
:101ED0000004024000080240000C024000100240D2
:101EE0000014024000180240001C024001488068B3
:101EF0007047000004000020024881680278114405
:101F000081607047040000200B4810B5016841F45F
:101F100000710160016841F480610160016841F471
:101F200080710160032000F063F8002000F006F8E3
:101F300000F024F8002010BD003C024070B50D4DAB
:101F400004464FF47A712878B1FBF0F00A49096829
:101F5000B1FBF0F000F0FEFA48B9102C07D20022D5
:101F60002146501E00F024F800206C6070BD012056
:101F700070BD000004000020100000200B4882B05B
:101F8000016841F480410160006800F480400090E5
:101F90000648001F016841F080510160006800F0B0
:101FA00080500090072002B000F022B84438024070
:101FB000F0B40E4B1B680C46C3F30223C3F10705B4
:101FC000042D00D90425191D072901D2002300E0A2
:101FD000DB1E012606FA05F1491E214099409E406C
:101FE000761E16403143F0BC00F0E9BC0CED00E079
:101FF000064900F0070208684FF6FF03184040EA60
:102000000220034A10430860704700000CED00E016
:102010000000FA052DE9F0470E46050065D0DFF80F
:102020001481D8F80000F7B200F00700B04207D2E0
:1020300088F80070D8F8000000F00700B04254D1D2
:1020400028683D4C810712D5400703D5206840F42D
:10205000E05020602878000703D5206840F46040F5
:1020600020602068A96820F0F000084320602878EC
:10207000C0072DD0304968680839012812D00228DD
:1020800013D0032811D00968890700292DDA2168A7
:1020900021F0030101432160FFF728FF814641F24F
:1020A000883A0EE009688903EFE709688901ECE7DF
:1020B000FFF71CFFA0EB0901514502D90320BDE841
:1020C000F0872068696800F00C00B0EB810FEFD159
:1020D000D8F80010404601F00701B14207D9077057
:1020E000006800F00700B04201D00120E7E728783F
:1020F000400705D52068E96820F4E05008432060D7
:102100002878000706D52068296920F4604040EA55
:10211000C100206000F038F82168084AC1F30311BB
:10212000515CC8400649086006480068FFF706FF92
:102130000020C4E7003C024008380240122F00088B
:1021400010000020080000200448054900680968C4
:10215000044AC1F38221515CC8407047100000203E
:1021600008380240222F0008044805490068096821
:10217000044AC1F34231515CC8407047100000204E
:1021800008380240222F0008154810B5006810F0EA
:102190000C02144813D04110042A0FD0082A0ED183
:1021A0000F4C241F2268236802F03F025B0207D510
:1021B0002068C0F38810A0FB010106E0084610BDAE
:1021C0002168C1F38811A1FB00010023FEF7B8F8D4
:1021D0002168C1F30141491C4900B0FBF1F010BD79
:1021E000083802400024F4002DE9F84F04006ED0B6
:1021F0002078DFF84C93C007A9F104054AD009F113
:1022000004000168C1F38101012908D00068C0F30E
:10221000810002280AD1D9F80000400206D52868BA
:10222000800337D560680028E1D033E06068B0F5FE
:10223000803F10D0B0F5A02F286810D020F4803057
:102240002860286820F4802028606068A8B1FFF723
:102250004DFE06460DE0286840F48030F4E740F477
:1022600080202860F7E700BFFFF740FE801B64284E
:1022700073D828688003F7D50CE0FFF737FE0646D1
:1022800005E000BFFFF732FE801B6428F0D8286805
:102290008003F7D42078DFF8AC8280074FF0000A83
:1022A0003ED5A748001D016811F00C0F08D000684A
:1022B000C0F3810002280BD1D9F80000400207D4F6
:1022C0002868800716D5E068012800D112E033E1C4
:1022D000E068B8B10120C8F80000FFF707FE064625
:1022E00005E000BFFFF702FE801B0228C0D8286867
:1022F0008007F7D52868216920F0F80040EAC1007E
:1023000028600DE0C8F800A0FFF7F0FD064604E0E5
:10231000FFF7ECFD801B02281FD828688007F7D440
:102320002078000722D5864F87486169703771B1E0
:1023300001210160FFF7DAFD064604E0FFF7D6FD54
:10234000801B022809D838688007F7D50EE0C0F84E
:1023500000A0FFF7CBFD064605E082E0FFF7C6FDD3
:10236000801B02287DD838688007F7D42078400782
:1023700068D5DFF8CCB100270BF13C0BDBF800008F
:10238000C0000BD4DBF8001041F08051CBF80010F6
:10239000DBF80000012700F0805000906B4E3068A1
:1023A000C00510D4306840F480703060FFF79EFDA7
:1023B000009005E0FFF79AFD0099401A022850D8D6
:1023C0003068C005F6D55E4EA0686C3601280FD087
:1023D0000528306810D020F001003060306820F00F
:1023E00004003060A068B8B1FFF780FD00900FE0F6
:1023F000306840F00100F4E740F004003060F7E797
:10240000FFF774FD0099411A41F28830814266D885
:1024100030688007F4D50EE0FFF768FD009007E014
:10242000FFF764FD0099411A41F28830814256D885
:1024300030688007F4D42FB1DBF8001021F0805110
:10244000CBF80010A069C8B33D49091D0968C1F364
:10245000810102294AD00228504607D0C8F86000FE
:1024600000E03CE0FFF742FD04463BE04746C8F889
:102470006000FFF73BFD064605E000BFFFF736FDB5
:10248000801B02282BD828688001F7D4D4E90701E3
:102490000843A16A2E4A490802EB0141626A41EAF7
:1024A0008211084394F82C1040EA0161C9F8001029
:1024B00001203866FFF71AFD044606E03EE000BF43
:1024C000FFF714FD001B022809D828688001F7D502
:1024D00034E000BFFFF70AFD001B022802D90320E9
:1024E000BDE8F88F28688001F4D427E00128F7D0F0
:1024F000D9F80000E26900F4800191421CD1226AFF
:1025000000F03F01914217D147F6C071626A014065
:10251000B1EB821F10D1A26A4FF0FF3300F44031BB
:1025200003EB5202B1EB024F06D194F82C1000F0ED
:102530007060B0EB016F01D00120D1E70020CFE740
:102540000438024000004742800E474200700040BD
:102550000000FFFF10B5401EB0F1807F01D30120C5
:1025600010BD4FF0E02460610F21601700F027FAE2
:102570000020A06107202061002010BD70B504007C
:1025800004D094F83D00002510B106E0012070BD94
:1025900084F83C50204600F023F8242084F83D00C5
:1025A0002068C16821F40051C160204600F02CF978
:1025B0002068016921F4904101612068416921F09E
:1025C0002A0141612068C16841F40051C16025645D
:1025D000202084F83D0084F83E00002070BD0000FB
:1025E00010B586B0044614216846FEF743F8134937
:1025F0002068884220D112480021026842F400324B
:102600000260006800F4003005900D481038026840
:1026100042F001020260006800F0010005900C2009
:1026200000900220CDE901010320039007200490CF
:1026300069460448FFF762FB06B010BD0044004045
:1026400040380240000002402DE9F843044690F86B
:102650003D001F4616460D4620284CD1C5B1BEB1DF
:1026600094F83C00012846D0012084F83C004FF04B
:102670000008C4F84080212084F83D00FFF736FCB4
:10268000A6848146E684A068B0F5805F03D004E0AC
:102690000120BDE8F883206928B12E465FF00005CF
:1026A00084F83C800EE00026FAE78021204600F006
:1026B00031F9A0B9AEB116F8010B21684860E08C81
:1026C000401EE084E08C4B464FF00002009700284B
:1026D000EBD14FF04001204600F01CF930B103204F
:1026E000D7E735F8020BC0F30800E6E7202084F8AE
:1026F0003D000020CDE70220CBE7FEE77FB50024B8
:10270000144800940194029411490394C0E9001400
:1027100084600461047680F820400F49C0E90A14FF
:102720000125C561C46080F830404561FFF7A5F917
:1027300008B172B6FEE70095CDE901546946054837
:10274000FFF7F2F8002801D072B6FEE77FBD000067
:1027500000200140480000200100000FFEE7FEE7D6
:1027600070477047FFF7C8BB30B593B0302168465B
:10277000FDF780FF14210CA8FDF77CFF1C48002505
:10278000016841F080510160006800F080501190B4
:102790001848016841F4804101600068022400F497
:1027A0008040119001200090000401908001CDE94B
:1027B0000640042008904820CDE9090407200B902A
:1027C0006846FFF711FD08B172B6FEE70CA90F20AD
:1027D00081E831004FF480500F90109002210CA836
:1027E000FFF718FC002801D072B6FEE713B030BD29
:1027F00040380240007000400248016841F4700116
:102800000160704788ED00E070B50446006801691A
:10281000E26821F44051114301612169A068E26935
:1028200008436169114308432168CA6849F20C638F
:102830009A430243CA6020684169A26921F4407149
:102840001143416131492068884202D030498842B1
:1028500002D1FFF789FC01E0FFF776FCE269002373
:10286000192164253226B2F5004F626828D0A0FBFA
:102870000101930F9200FDF763FD0146B0FBF5F0F7
:102880006FF01802504301EB800006EB0010B0FB24
:10289000F5F000F0F002B1FBF5F002EB0012B1FB35
:1028A000F5F06FF01803584301EB800006EB0010C1
:1028B000B0FBF5F000F00F0021681044886070BD97
:1028C000A0FB010192185B41FDF73AFD0146B0FB08
:1028D000F5F00201B1FBF5F06FF01803584301EB7E
:1028E000800006EBC000B0FBF5F000F0F80002EB52
:1028F0004002B1FBF5F0584301EB800006EBC0004D
:10290000B0FBF5F000F00700D6E700000010014032
:10291000001401402DE9F041984617460E46044642
:10292000069D27E0681C25D02DB1FFF7DFFAA0EB4C
:102930000800A8421ED920680C3050E8001F21F47E
:10294000D07140E80012002AF5D12068143050E818
:10295000001F21F0010140E80012002AF5D12020DB
:1029600084F83D0084F83E00002084F83C000320F9
:10297000BDE8F0812068006836EA000004D000203D
:10298000B842CFD00020F3E70120F9E7FEE703B417
:1029900001984100009850EAC12018BF04204A0D58
:1029A00018BF40F0010040F2FF72B2EB515F08BF68
:1029B00040F00200012808BF052002B07047090757
:1029C000090E002804DB00F1E02080F800147047B5
:1029D00000F00F0000F1E02080F8141D704730383F
:1029E0000A2801D201207047002070472DED028B8C
:1029F00082B0FFF789FAFFF7B7FE37480024016875
:102A000041F004010160016801F0040100910168D6
:102A100041F080010160016801F0800100910168CE
:102A200041F001010160006800F001000090FFF733
:102A300065FE2B48294901604FF41651C0E9011485
:102A40000C21C460C0E904418461C461FFF796FDB4
:102A500008B172B6FEE7234F9FED238B4FF49675B6
:102A60004FF4FA781E484838FFF7B8F81C48294652
:102A70004838FFF75DF81A484838FEF7FBFF86B282
:102A80003E80304600F0B7F853EC182B00F0C6F843
:102A900000F080F80446304600F03CF80646204638
:102AA00000F0BAF9CDE900010D48324610A17C389A
:102AB000FDF7BEFC0A487C38FDF7BDFD084982B22F
:102AC0002B467C390648FFF7BFFD4046FFF704F967
:102AD0003046FDF70EFCC5E73038024000440040A8
:102AE00090000020000000206666666666664A3F29
:102AF000415343494920436F64653A2025732C2094
:102B0000566F6C746167653A20252E326620560D2B
:102B10000A000000F0B585B0024611A16846FDF735
:102B200087FC6846FDF787FD00EB4000FDF7B2FB30
:102B3000002506462C466F4606E03A5D701909A14D
:102B4000FDF776FC0544641C6846FDF774FDA04261
:102B5000F3D80020711901F8010C05B03046F0BD22
:102B6000256400002564200010B500290AD00878EB
:102B7000002807D005487844FEF712FA002801D053
:102B8000002010BD0248784410BD00006A04000017
:102B90006204000021F00042A2F16052B2F5801FF1
:102BA00001F0004328BFD2F17F6C0BD95FEA001C13
:102BB00043EAC20242EB507018BF704728BF20F0B2
:102BC00001007047B2F5801FBCBF184670474FEA3E
:102BD000410C1CF5001F02D2084600F093B970B5F5
:102BE00000F0C6F800000089FFF7F6BF4FF0004084
:102BF000A0F580007047B0FA80F310FA03F10AD014
:102C0000C3F11D0303F580634FEA41504FEA0352BD
:102C100002EBD12170474FF000007047DFF848C148
:102C200070B51CEA111E1EBF1CEA13159EEA0C0F9C
:102C300095EA0C0F00F06F8081EA030423EA4C133D
:102C40004EEAD47E21EA4C1141F4801143F4801302
:102C5000AE44A1FB024CA0FB0365AEF17F7E3619AA
:102C600055EB0C05A1FB034C4CF10003A0FB021C2F
:102C700016EB0C06654153F10003094218BF46F0FC
:102C8000010613F4007F0BD14FEA03314FEA053000
:102C9000340341EA155140EA16506FF003020AE08E
:102CA0004FEAC3214FEAC520F40241EA555140EAF8
:102CB00056506FF0020202EB2E4201EB025585EAFC
:102CC000CE710AD05FEA440C18BF24F0004450F1E2
:102CD000000041F1000120EAD47040F2FE7C624520
:102CE00000D270BDA84214BF4FF080444FF0404462
:102CF000002E08BF0024BEF1806FA8BFA1F1C04123
:102D0000BDE8704080F282804FF0000001F1C041C8
:102D100001F0004170479EEA0C0F0CEA131518BF32
:102D200095EA0C0F06D04FF0000081EA030E0EF07A
:102D3000004170BD00F01CF88900013E00F007B8AA
:102D400000F009B84FEA430C5FEA5C5C08D081EA06
:102D5000030100F05BB84FEA410C5FEA5C5CF6D11E
:102D60004FF00000014970470000FF070000F87FA6
:102D70000EF1020E2EF0030E5EF8046B364205D4FF
:102D8000012A43EB030515F5001F12D8012841EB7A
:102D9000010C1CF5001F0CD80ED14FEAD17C15F5A3
:102DA000001F0CEB4C0C0CF1020C08BF4CEBD37C5D
:102DB00004E04FF0080C01E04FEAD37C0CEB4C052B
:102DC00026FA05F606F00706B6F1040C06D20EEB5D
:102DD000860CBDE870404CF0010C6047DFE80CF059
:102DE000090B02024FF000414FF00000A1F5002155
:102DF00070BD19461046012851EB010418BFD4F5E7
:102E0000001484BF002001F0004170BD0808A0F547
:102E100000114FEA3101704743004FEAD30C4FEAEB
:102E20003C0C43401FBF40070CF1605113F0FE4FB4
:102E300070471CF0006F03D100200CF00041704778
:102E40000CF0004343EA507010B540EACC0000F0AB
:102E50000EF800BF000000924FEA0001FFF7D6BF56
:102E60004FF000414FF00000A1F5002170470EF136
:102E7000020E2EF0030E5EF8044B244204D44FEAF7
:102E80004102B2F17F4F11D84FEA4003B3F17F4FB7
:102E90000CD80ED14FEAD07CB2F17F4F0CEB4C0C2A
:102EA0000CF1020C08BF4CEBD17C04E04FF0080C95
:102EB00001E04FEAD17C0CEB4C0324FA03F404F05C
:102EC0000704B4F1040C06D20EEB840CBDE81040EC
:102ED0004CF0010C6047DFE80CF0070802024FF0ED
:102EE0000040A0F5800010BD0846420018BFD2F196
:102EF000807288BF00F0004010BD4FF04070E1EEDE
:102F0000100A7047FF2141EAD050C0057047FDF715
:102F10005FBD00000000000000000102030406077E
:102F20000809000000000102030400000240000044
:102F3000000000A00000000005400000000000C8E4
:102F4000000000000C4000000000409C0000000059
:102F5000194000000020BCBE00000000344000000A
:102F6000BFC91B8E00000004B5400000504BCFD0FD
:102F70006607E2CF010000006C4100003E8251AACA
:102F8000DFEEA73401000000D9420000DCB5A0E26A
:102F90003A301F97FFFFFFFFB4450000FD25A0C892
:102FA000E9A3C14FFFFFFFFFFF3F000000000080CB
:102FB00000000000FF3F0000000000800000000053
:102FC000FC2F00080000002014000000C4010008CD
:102FD000103000081400002024070000E001000861
:102FE0001C00000043000000F8FFFFFF0C00000081
:102FF0000E0000000F0000002E0000000000000086
:103000000100000010000000000000000024F40097
:040000050800018965
:00000001FF
